:020000040800F2
:1000000000100020A50400086F0400087104000817
:10001000730400087504000877040008000000005D
:10002000000000000000000000000000790400084B
:100030007B040008000000007D0400087F04000825
:10004000C1040008C5040008C9040008CD04000864
:10005000D1040008D5040008D9040008DD04000814
:10006000E1040008E5040008E9040008ED040008C4
:10007000F1040008F5040008F9040008FD04000874
:100080000105000805050008090500080D05000820
:100090001105000815050008190500081D050008D0
:1000A0002105000825050008290500082D05000880
:1000B00081040008830400083105000835050008A4
:1000C000390500083D050008410500084505000800
:1000D000490500084D0500085105000855050008B0
:1000E000590500085D050008610500086505000860
:1000F00069050008000000006D0500087105000892
:1001000075050008790500087D05000881050008CF
:1001100085050008890500088D050008910500087F
:10012000950500085D48006850F004005B490860D0
:100130005B48006850F4002059490860584800683E
:1001400030F48020564908605648006830F480201A
:10015000544908605348006850F400205149086031
:10016000514800884FF6FF5108404F4908804F48DA
:10017000006830F0F0004D4908604C48006850F4C9
:1001800000304A49086070474448006850F0020057
:10019000424908604648006850F4007044490860CD
:1001A0004348006830F48070414908604148008845
:1001B0004FF6EF7108403F4908803F48006830F42F
:1001C00080303D4908603C48006850F400303A49AE
:1001D00008603948006830F48020374908603648A4
:1001E000006830F4002034490860704780B500F0A2
:1001F00007F800F035F8FFF7C7FFFFF793FFFEE7BA
:100200002E48006850F002002C49086040F23F1070
:100210002B49088040F2E7302A4908602A480088C4
:1002200050F0800028490880274800884FF6BF71A9
:10023000084025490880244800884FF6DF710840AF
:1002400021490880204800884FF6EF7108401E4978
:1002500008801D48008850F001001B490880704745
:100260001A4800884FF6FC71084018490880174862
:1002700000884FF6EF710840144908801348008841
:1002800050F06000114908804B2011490860114866
:10029000008850F001000F49088070471C38024068
:1002A00000080240080802400408024024080240F6
:1002B00000040240040402402004024024380240AA
:1002C000280400402C0400400004004018040040B2
:1002D000340400402004004080B55248006850F4C7
:1002E00080705049086050480068504908404E49A5
:1002F00008604C4800684E4908404A49086049482F
:10030000006830F48020474908604748006830F4AE
:100310007D004549086000204649086000F005F866
:100320005FF000604449086001BD82B00020019088
:10033000002000903B48006850F480303949086044
:100340003848006810F4003000900198401C01907B
:100350000098002803D10198B0F5A04FF0D13148A2
:100360000068800302D50120009001E00020009089
:100370000098012853D13148006850F004002F49FB
:1003800008602E48006850F002002C4908602B4895
:10039000006850F00100294908602948006850F0C1
:1003A0008050274908604FF40060264908602648BD
:1003B0000068C006FBD41C4800681B4908601A4846
:1003C000006819490860184800681749086016480D
:1003D000006830F47D00144908601348006850F448
:1003E0001100114908600F48006850F080700D49F5
:1003F00008600C4800688001FBD50B480068800845
:100400008000094908600848006850F00300064968
:1004100008600548006810F00C000C28F9D102B003
:100420007047000000380240083802400CC0FF88C6
:10043000FEFFFEEE0C38024008ED00E0003C0240FA
:1004400024380240007000400470004000F00BF8B7
:10045000002801D0AFF300800020AFF30080FFF749
:10046000C5FE00F002F80120704700F00BB870479D
:10047000FEE7FEE7FEE7FEE770477047704770470C
:10048000704770470746384600F002F8FBE7000067
:1004900080B5AFF30080024A11001820ABBEFBE725
:1004A000260002000148804701480047D9020008A1
:1004B000B5040008AFF30080AFF30080FFF7C6FF7C
:1004C000FFF7FEBFFFF7FEBFFFF7FEBFFFF7FEBF60
:1004D000FFF7FEBFFFF7FEBFFFF7FEBFFFF7FEBF50
:1004E000FFF7FEBFFFF7FEBFFFF7FEBFFFF7FEBF40
:1004F000FFF7FEBFFFF7FEBFFFF7FEBFFFF7FEBF30
:10050000FFF7FEBFFFF7FEBFFFF7FEBFFFF7FEBF1F
:10051000FFF7FEBFFFF7FEBFFFF7FEBFFFF7FEBF0F
:10052000FFF7FEBFFFF7FEBFFFF7FEBFFFF7FEBFFF
:10053000FFF7FEBFFFF7FEBFFFF7FEBFFFF7FEBFEF
:10054000FFF7FEBFFFF7FEBFFFF7FEBFFFF7FEBFDF
:10055000FFF7FEBFFFF7FEBFFFF7FEBFFFF7FEBFCF
:10056000FFF7FEBFFFF7FEBFFFF7FEBFFFF7FEBFBF
:10057000FFF7FEBFFFF7FEBFFFF7FEBFFFF7FEBFAF
:10058000FFF7FEBFFFF7FEBFFFF7FEBFFFF7FEBF9F
:08059000FFF7FEBFFFF7FEBFFD
:04000005080004B536
:00000001FF
